{
  "address": "0xF71e8a4AB02543DE9359Db1eb58Ab7d5064df3c2",
  "abi": [
    {
      "inputs": [
        {
          "internalType": "address",
          "name": "_anycallcontract",
          "type": "address"
        },
        {
          "internalType": "uint256",
          "name": "_destchain",
          "type": "uint256"
        }
      ],
      "stateMutability": "nonpayable",
      "type": "constructor"
    },
    {
      "anonymous": false,
      "inputs": [
        {
          "indexed": true,
          "internalType": "address",
          "name": "_from",
          "type": "address"
        },
        {
          "indexed": true,
          "internalType": "uint256",
          "name": "_fromChainId",
          "type": "uint256"
        }
      ],
      "name": "ContextEvent",
      "type": "event"
    },
    {
      "anonymous": false,
      "inputs": [
        {
          "indexed": false,
          "internalType": "string",
          "name": "msg",
          "type": "string"
        }
      ],
      "name": "NewMsg",
      "type": "event"
    },
    {
      "stateMutability": "payable",
      "type": "fallback"
    },
    {
      "inputs": [
        {
          "internalType": "bytes",
          "name": "_data",
          "type": "bytes"
        }
      ],
      "name": "anyExecute",
      "outputs": [
        {
          "internalType": "bool",
          "name": "success",
          "type": "bool"
        },
        {
          "internalType": "bytes",
          "name": "result",
          "type": "bytes"
        }
      ],
      "stateMutability": "nonpayable",
      "type": "function"
    },
    {
      "inputs": [],
      "name": "anycallcontract",
      "outputs": [
        {
          "internalType": "address",
          "name": "",
          "type": "address"
        }
      ],
      "stateMutability": "view",
      "type": "function"
    },
    {
      "inputs": [
        {
          "internalType": "address",
          "name": "_destcontract",
          "type": "address"
        }
      ],
      "name": "changedestinationcontract",
      "outputs": [],
      "stateMutability": "nonpayable",
      "type": "function"
    },
    {
      "inputs": [
        {
          "internalType": "address",
          "name": "_contractcaller",
          "type": "address"
        }
      ],
      "name": "changeverifiedcaller",
      "outputs": [],
      "stateMutability": "nonpayable",
      "type": "function"
    },
    {
      "inputs": [],
      "name": "destchain",
      "outputs": [
        {
          "internalType": "uint256",
          "name": "",
          "type": "uint256"
        }
      ],
      "stateMutability": "view",
      "type": "function"
    },
    {
      "inputs": [],
      "name": "owneraddress",
      "outputs": [
        {
          "internalType": "address",
          "name": "",
          "type": "address"
        }
      ],
      "stateMutability": "view",
      "type": "function"
    },
    {
      "inputs": [],
      "name": "receivercontract",
      "outputs": [
        {
          "internalType": "address",
          "name": "",
          "type": "address"
        }
      ],
      "stateMutability": "view",
      "type": "function"
    },
    {
      "inputs": [
        {
          "internalType": "string",
          "name": "_msg",
          "type": "string"
        }
      ],
      "name": "step1_initiateAnyCallSimple_srcfee",
      "outputs": [],
      "stateMutability": "payable",
      "type": "function"
    },
    {
      "inputs": [],
      "name": "verifiedcaller",
      "outputs": [
        {
          "internalType": "address",
          "name": "",
          "type": "address"
        }
      ],
      "stateMutability": "view",
      "type": "function"
    },
    {
      "stateMutability": "payable",
      "type": "receive"
    }
  ],
  "transactionHash": "0xf74ef1c8d2ff1d66dc97c20d22f961a402fac635e7c959f3bd2e76f4f5a69886",
  "args": [
    "0xfCea2c562844A7D385a7CB7d5a79cfEE0B673D99",
    "97"
  ],
  "numDeployments": 1,
  "solcInputHash": "86c6969c492adaa6cbf85bf4e9149f52",
  "bytecode": "0x608060405234801561001057600080fd5b5060405161081538038061081583398101604081905261002f91610061565b600080546001600160a01b039093166001600160a01b031993841617905560018054909216331790915560045561009b565b6000806040838503121561007457600080fd5b82516001600160a01b038116811461008b57600080fd5b6020939093015192949293505050565b61076b806100aa6000396000f3fe6080604052600436106100845760003560e01c806394d7441e1161005657806394d7441e1461012e5780639abaf4791461014e578063aaa484251461017c578063d2645dd91461019c578063f6002028146101af57005b806320f75e851461008d57806323ea4877146100ad57806347d8937d146100cd5780637e1766e9146100f657005b3661008b57005b005b34801561009957600080fd5b5061008b6100a8366004610421565b6101cf565b3480156100b957600080fd5b5061008b6100c8366004610421565b610250565b3480156100d957600080fd5b506100e360045481565b6040519081526020015b60405180910390f35b34801561010257600080fd5b50600354610116906001600160a01b031681565b6040516001600160a01b0390911681526020016100ed565b34801561013a57600080fd5b50600254610116906001600160a01b031681565b34801561015a57600080fd5b5061016e6101693660046104c0565b6102cc565b6040516100ed92919061059c565b34801561018857600080fd5b50600154610116906001600160a01b031681565b61008b6101aa3660046105bf565b61033b565b3480156101bb57600080fd5b50600054610116906001600160a01b031681565b6001546001600160a01b0316331461022e5760405162461bcd60e51b815260206004820152601f60248201527f6f6e6c79206f776e65722063616e2063616c6c2074686973206d6574686f640060448201526064015b60405180910390fd5b600280546001600160a01b0319166001600160a01b0392909216919091179055565b6001546001600160a01b031633146102aa5760405162461bcd60e51b815260206004820152601f60248201527f6f6e6c79206f776e65722063616e2063616c6c2074686973206d6574686f64006044820152606401610225565b600380546001600160a01b0319166001600160a01b0392909216919091179055565b600060606000838060200190518101906102e69190610631565b90507f398815baeb0820d3e2c52be1de829fc597863cd6cce7d84c712074b5027bc1758160405161031791906106a8565b60405180910390a16001925060405180602001604052806000815250915050915091565b7f398815baeb0820d3e2c52be1de829fc597863cd6cce7d84c712074b5027bc175828260405161036c9291906106bb565b60405180910390a16001546001600160a01b031633141561041d576000546002546040516001600160a01b0392831692631979a2849234929116906103b790879087906020016106bb565b60405160208183030381529060405260045460006040518663ffffffff1660e01b81526004016103ea94939291906106ea565b6000604051808303818588803b15801561040357600080fd5b505af1158015610417573d6000803e3d6000fd5b50505050505b5050565b60006020828403121561043357600080fd5b81356001600160a01b038116811461044a57600080fd5b9392505050565b634e487b7160e01b600052604160045260246000fd5b604051601f8201601f1916810167ffffffffffffffff8111828210171561049057610490610451565b604052919050565b600067ffffffffffffffff8211156104b2576104b2610451565b50601f01601f191660200190565b6000602082840312156104d257600080fd5b813567ffffffffffffffff8111156104e957600080fd5b8201601f810184136104fa57600080fd5b803561050d61050882610498565b610467565b81815285602083850101111561052257600080fd5b81602084016020830137600091810160200191909152949350505050565b60005b8381101561055b578181015183820152602001610543565b8381111561056a576000848401525b50505050565b60008151808452610588816020860160208601610540565b601f01601f19169290920160200192915050565b82151581526040602082015260006105b76040830184610570565b949350505050565b600080602083850312156105d257600080fd5b823567ffffffffffffffff808211156105ea57600080fd5b818501915085601f8301126105fe57600080fd5b81358181111561060d57600080fd5b86602082850101111561061f57600080fd5b60209290920196919550909350505050565b60006020828403121561064357600080fd5b815167ffffffffffffffff81111561065a57600080fd5b8201601f8101841361066b57600080fd5b805161067961050882610498565b81815285602083850101111561068e57600080fd5b61069f826020830160208601610540565b95945050505050565b60208152600061044a6020830184610570565b60208152816020820152818360408301376000818301604090810191909152601f909201601f19160101919050565b6001600160a01b038516815260a06020820181905260009061070e90830186610570565b6040830194909452506060810191909152808203608090910152600081526020019291505056fea2646970667358221220674c1097732626baa1be018835a657eb2cb90d2b355ae9d3ff5116667672752664736f6c634300080a0033",
  "devdoc": {
    "kind": "dev",
    "methods": {},
    "version": 1
  },
  "userdoc": {
    "kind": "user",
    "methods": {},
    "version": 1
  },
  "storageLayout": {
    "storage": [
      {
        "astId": 31,
        "contract": "contracts/AnyCallSimple.sol:Anycalltestboth",
        "label": "anycallcontract",
        "offset": 0,
        "slot": "0",
        "type": "t_address"
      },
      {
        "astId": 33,
        "contract": "contracts/AnyCallSimple.sol:Anycalltestboth",
        "label": "owneraddress",
        "offset": 0,
        "slot": "1",
        "type": "t_address"
      },
      {
        "astId": 35,
        "contract": "contracts/AnyCallSimple.sol:Anycalltestboth",
        "label": "receivercontract",
        "offset": 0,
        "slot": "2",
        "type": "t_address"
      },
      {
        "astId": 37,
        "contract": "contracts/AnyCallSimple.sol:Anycalltestboth",
        "label": "verifiedcaller",
        "offset": 0,
        "slot": "3",
        "type": "t_address"
      },
      {
        "astId": 39,
        "contract": "contracts/AnyCallSimple.sol:Anycalltestboth",
        "label": "destchain",
        "offset": 0,
        "slot": "4",
        "type": "t_uint256"
      }
    ],
    "types": {
      "t_address": {
        "encoding": "inplace",
        "label": "address",
        "numberOfBytes": "20"
      },
      "t_uint256": {
        "encoding": "inplace",
        "label": "uint256",
        "numberOfBytes": "32"
      }
    }
  }
}